:100000000C943F000C9467000C9467000C948904D6
:100010000C9467000C94B9040C94E9040C94190531
:100020000C9467000C9467000C9467000C946700B4
:100030000C9467000C9467000C9467000C94D30236
:100040000C9467000C9467000C9467000C94670094
:100050000C9467000C9467000C9467000C94670084
:100060000C9467000C9467000C9467000C94670074
:100070000C9467000C9467000C94670067071124C8
:100080001FBECFEFD0E1DEBFCDBF12E0A0E0B1E0F8
:10009000E8EAFEE102C005900D92AA34B107D9F753
:1000A00012E0AAE4B2E001C01D92A63FB107E1F759
:1000B00010E0CEE7D0E004C02297FE010E944E0F70
:1000C000CC37D107C9F70E9470030C94520F0C94DF
:1000D00000000F931F93CF93DF938C01EB0109C0B6
:1000E0002196D801ED91FC910190F081E02DC8019D
:1000F000099568816623A1F7DF91CF911F910F9138
:100100000895EF92FF920F931F93CF93DF938C018B
:100110007B01EA010CC0D7016D917D01D801ED9101
:10012000FC910190F081E02DC8010995219720975D
:1001300091F7DF91CF911F910F91FF90EF9008956C
:10014000DC01ED91FC910190F081E02D099508957D
:10015000DC01ED91FC910190F081E02D099508956D
:10016000DC01ED91FC910280F381E02D0995089569
:100170000F931F938C01DC01ED91FC910190F081B4
:10018000E02D6DE00995D801ED91FC910190F08191
:10019000E02DC8016AE009951F910F9108950F9312
:1001A0001F938C01DC01ED91FC910190F081E02D19
:1001B0000995C8010E94B8001F910F9108950F93EF
:1001C0001F938C010E94B000C8010E94B8001F91CB
:1001D0000F9108950F931F938C01DC01ED91FC9119
:1001E0000190F081E02D0995C8010E94B8001F918F
:1001F0000F9108952F923F924F925F926F927F924C
:100200008F929F92AF92BF92CF92DF92EF92FF9226
:100210000F931F93DF93CF93CDB7DEB7A0970FB6A1
:10022000F894DEBF0FBECDBF1C016A017B014115F2
:1002300051056105710549F4DC01ED91FC910190D6
:10024000F081E02D60E3099554C08824992454017D
:10025000422E55246624772401E010E00C0F1D1F68
:10026000080D191DC701B601A30192010E94DF0EFE
:10027000F80160830894811C911CA11CB11CC7016A
:10028000B601A30192010E94DF0EC901DA016C01DF
:100290007D01C114D104E104F104F1F681E0E82EFE
:1002A000F12CEC0EFD1EE80CF91C3E010894611CBB
:1002B000711CD501C4010197A109B1096C01C818CD
:1002C000D90814C0F601EE0DFF1D60816A3010F4EC
:1002D000605D01C0695CD101ED91FC910190F081FC
:1002E000E02DC10109950894E108F1086E147F041E
:1002F00049F7A0960FB6F894DEBF0FBECDBFCF91E1
:10030000DF911F910F91FF90EF90DF90CF90BF9002
:10031000AF909F908F907F906F905F904F903F90A5
:100320002F9008952AE00E94FA0008950F931F93DA
:100330008C010E949201C8010E94B8001F910F9188
:100340000895AB0160E070E00E94920108950F9360
:100350001F938C01AB0160E070E00E949201C80124
:100360000E94B8001F910F910895EF92FF920F9392
:100370001F93CF93DF93EC017A018B0177FF0FC0BE
:10038000E881F9810190F081E02D6DE209951095E9
:100390000095F094E094E11CF11C011D111DCE01AB
:1003A000B801A7012AE00E94FA00DF91CF911F91C6
:1003B0000F91FF90EF9008950F931F938C010E946F
:1003C000B501C8010E94B8001F910F910895AB01BB
:1003D000662757FD6095762F0E94B50108950F930B
:1003E0001F938C01AB01662757FD6095762F0E9405
:1003F000B501C8010E94B8001F910F910895DC015A
:100400002115310541F4ED91FC910190F081E02D31
:10041000642F099508952A30310519F40E94B50119
:1004200008950E94FA0008950F931F938C010E9473
:10043000FF01C8010E94B8001F910F9108959F927B
:10044000AF92BF92CF92DF92EF92FF920F931F93E2
:10045000CF93DF93EC017A018B01922ECB01BA018D
:1004600020E030E040E050E00E945D0B882364F41F
:10047000E881F9810190F081E02DCE016DE20995CE
:1004800017FB109517F9109520E030E040E05FE38E
:10049000AA240BC0CA01B90120E030E040E251E4D7
:1004A0000E94810A9B01AC01A394A91498F3C8018E
:1004B000B7010E945A095B016C010E94B1077B01E0
:1004C0008C01CE01B801A7010E949201992029F068
:1004D000CE0160E071E00E94B000C801B7010E9447
:1004E0003F0C9B01AC01C601B5010E94290920C047
:1004F00020E030E040E251E40E9487097B018C015A
:100500000E94EB0B5B016C01CC24B7FCC094DC2C8B
:10051000CE01B601A5010E94B501C601B5010E9438
:100520008D0B9B01AC01C801B7010E9429099A9467
:100530009920F1F6DF91CF911F910F91FF90EF90ED
:10054000DF90CF90BF90AF909F90089522E00E94DF
:100550001F0208950F931F938C010E94A602C801E9
:100560000E94B8001F910F910895A0E8B0E01C927E
:10057000E1E8F0E010828081826080838081816088
:10058000808380818F7E80838081877F80838C9130
:100590008D7F8C938C918E7F8C93EFE6F0E0808141
:1005A0008160808308951F920F920FB60F921124DD
:1005B0008F939F938BB190E189278BB99F918F91F6
:1005C0000F900FBE0F901F9018950E94C70382FFD7
:1005D0003EC0482F50E060E070E08FED92E020E1F7
:1005E00030E00E94FF018FED92E06CE071E00E942C
:1005F000B0006091F2028FED92E070E00E94A101E4
:100600008FED92E06CE071E00E94B0006091F40226
:100610008FED92E070E00E94A1018FED92E06CE01E
:1006200071E00E94B0006091F5028FED92E070E001
:100630000E94A1018FED92E06CE071E00E94B00099
:100640006091F3028FED92E070E00E94A70180912B
:10065000F202833210F41092F2028091F40283329B
:1006600010F41092F4028091F502833210F410928B
:10067000F5028091F302833210F41092F30281E0CC
:100680006091F5020E948E0582E06091F5020E9461
:100690008E0583E06091F5020E948E0584E06091F2
:1006A000F5020E948E0508950F931F930FED12E03F
:1006B000C80140E052EC61E070E00E940E06C80103
:1006C0006EE071E00E94DF00549A5C980E94490538
:1006D0000E9475030E94B50278941F910F910895AE
:1006E0000E9454030E94E502FDCF1092F202109284
:1006F000F4021092F5021092F3021092540210923A
:100700005302109256021092550210925802109203
:10071000570210925A021092590210924C021092F3
:100720004B0210924E0210924D0210925002109203
:100730004F02109252021092510210924A022298D5
:10074000209855983F98E9E6F0E0808180618083A9
:1007500080818F7D8083EA9AECE6F0E08081816081
:100760008083E3E7F0E0808180628083EDE6F0E063
:10077000808180688083E8E6F0E080818260808309
:100780008081846080838081886080830895CF9297
:10079000DF92EF92FF921F93CF93DF938FB7F8947E
:1007A00010914A0210924A026091530270915402D1
:1007B000C0915502D0915602C0905702D090580275
:1007C000E0905902F0905A028FBF10FF24C0CB0175
:1007D0008953914088539140E8F46853714080E018
:1007E00090E00E943F0C20E030E04FE753E40E948D
:1007F000870920E030E84CE953E40E94810A20E0B8
:1008000030E040E050E00E945A090E94B107609336
:10081000F20201C0106111FF25C0CE018953914041
:1008200088539140F0F4C853D140BE0180E090E07D
:100830000E943F0C20E030E04FE753E40E9487091C
:1008400020E030E84CE953E40E94810A20E030E0E7
:1008500040E050E00E945A090E94B1076093F40200
:1008600001C0106212FF23C0B6016853714081E0DD
:100870006A337807D8F480E090E00E943F0C20E0D3
:1008800030E04FE753E40E94870920E030E84CE96C
:1008900053E40E94810A20E030E040E050E00E94F2
:1008A0005A090E94B1076093F50201C0106413FF5A
:1008B00027C0C701895391408853914000F588ECC7
:1008C0009EEFE80EF91EB70180E090E00E943F0C19
:1008D00020E030E04FE753E40E94870920E030E851
:1008E0004CE953E40E94810A20E030E040E050E00F
:1008F0000E945A090E94B1076093F30201C0106878
:10090000812FDF91CF911F91FF90EF90DF90CF90DB
:1009100008951F920F920FB60F9211242F933F93B9
:100920008F939F931A9B09C08091840090918500BA
:1009300090934C0280934B0213C08091840090915D
:10094000850020914B0230914C02821B930B9093B7
:1009500054028093530280914A02816080934A023C
:100960009F918F913F912F910F900FBE0F901F90ED
:1009700018951F920F920FB60F9211242F933F9349
:100980008F939F93189B09C080918400909185005C
:1009900090934E0280934D0213C0809184009091F9
:1009A000850020914D0230914E02821B930B909353
:1009B00056028093550280914A02826080934A02D7
:1009C0009F918F913F912F910F900FBE0F901F908D
:1009D00018951F920F920FB60F9211242F933F93E9
:1009E0008F939F93379B09C08091840090918500DD
:1009F000909352028093510213C080918400909191
:100A000085002091510230915202821B930B9093EA
:100A10005A028093590280914A02886080934A0268
:100A20009F918F913F912F910F900FBE0F901F902C
:100A300018951F920F920FB60F9211242F933F9388
:100A40008F939F934D9B09C0809184009091850066
:100A50009093500280934F0213C080918400909134
:100A6000850020914F0230915002821B930B90938E
:100A700058028093570280914A02846080934A0210
:100A80009F918F913F912F910F900FBE0F901F90CC
:100A9000189584B5806884BD84B58F7B84BD84B58A
:100AA000806284BD84B58F7E84BD85B5877F85BD1A
:100AB00084B5826084BD84B5816084BD85B5846061
:100AC00085BD85B58D7F85BD85B58E7F85BDE0EB08
:100AD000F0E080818068808380818F7B808380814B
:100AE0008062808380818F7E8083A1EBB0E08C91D7
:100AF000877F8C9380818260808380818160808306
:100B00008C9184608C938C9182608C938C918E7F7D
:100B10008C93239A249A579A569A0895282F8EE4F4
:100B2000689FC00111246FEF70E00E94CC0E625BE1
:100B3000223061F0233018F4213079F405C02330DD
:100B400039F0243051F407C067BD089568BD089599
:100B50006093B30008956093B40008958F92AF92AC
:100B6000CF92DF92EF92FF920F931F93DF93CF9379
:100B7000CDB7DEB7FC018BE391E091838083738373
:100B80006283558344833783268311870087F386E6
:100B9000E286D586C486A68687868D85808B8E85DF
:100BA000818B8F85828BCF91DF911F910F91FF9069
:100BB000EF90DF90CF90AF908F9008958F92AF928B
:100BC000CF92DF92EF92FF920F931F93DF93CF9319
:100BD000CDB7DEB7FC018BE391E091838083738313
:100BE0006283558344833783268311870087F38686
:100BF000E286D586C486A68687868D85808B8E857F
:100C0000818B8F85828BCF91DF911F910F91FF9008
:100C1000EF90DF90CF90AF908F9008958F929F923A
:100C2000AF92BF92CF92DF92EF92FF920F931F93FA
:100C3000CF93DF934C017A018B0181EDE81682E1BD
:100C4000F80683E1080780E0180708F073C060EA3F
:100C500075E286E290E0A80197010E94DF0E59013B
:100C60006A010894A108B108C108D108D694C794B4
:100C7000B794A794A60195012F5F3F4F4F4F5F4F49
:100C800074E0220F331F441F551F7A95D1F760E09F
:100C90007DE281E391E00E94DF0ECA01B9012FEFEE
:100CA00030E040E050E00E94AD0EA80197010E94A4
:100CB000DF0ECFEFD0E0C21BD30BD7FF03C0D09520
:100CC000C195DF4F60E47BE48CE490E0A8019701DC
:100CD0000E94DF0E215030404040504056954795CD
:100CE000379527952F5F3F4F4F4F5F4F93E0220F70
:100CF000331F441F551F9A95D1F760E07DE281E3D1
:100D000091E00E94DF0ECA01B9012FEF30E040E010
:100D100050E00E94AD0EA80197010E94DF0E8FEFF8
:100D200090E0821B930B97FF03C0909581959F4F96
:100D30008C1710F5D4011896ED91FC91199781E06C
:100D400090E052960C9002C0880F991F0A94E2F727
:100D5000808360E47BE48CE490E0A80197010E942A
:100D6000DF0E215030404040504056954795379512
:100D70002795822F232F08C0D4011896ED91FC915E
:100D8000199710828A2D2B2DD4011496ED91FC9188
:100D9000159720831696ED91FC91179780831A96EC
:100DA000ED91FC911B97208141E050E0CA011E9615
:100DB0000C901E9702C0880F991F0A94E2F7282B07
:100DC00020831A96ED91FC911B972081CA011F96F2
:100DD0000C901F9702C0880F991F0A94E2F7282BE6
:100DE00020831A96ED91FC911B97808150960C9070
:100DF00002C0440F551F0A94E2F7842B8083DF91D1
:100E0000CF911F910F91FF90EF90DF90CF90BF9007
:100E1000AF909F908F900895DC011296ED91FC9118
:100E20001397E058FF4F8191919180589F4F2081F7
:100E30003181821B930B60E870E00E94CC0E089514
:100E4000CF93DF93DC011296ED91FC911397EF01A4
:100E5000CE57DF4F48815981E058FF4F8081918103
:100E6000E058F0408417950719F42FEF3FEF0CC0BE
:100E7000E40FF51F2081CA01019660E870E00E942E
:100E8000CC0E9983888330E0C901DF91CF9108951A
:100E9000DC011296ED91FC911397EE57FF4F808184
:100EA0009181929382930895FC01A085B185218957
:100EB0008C9190E0022E02C0959587950A94E2F7F6
:100EC00080FFF6CF0484F585E02D608308958BE3E1
:100ED00091E09093E0028093DF028BE592E09093A3
:100EE000E2028093E10285EC90E09093E40280932B
:100EF000E30284EC90E09093E6028093E50280ECBC
:100F000090E09093E8028093E70281EC90E0909368
:100F1000EA028093E90286EC90E09093EC028093E1
:100F2000EB0284E08093ED0283E08093EE0287E0A1
:100F30008093EF0285E08093F00281E08093F102DC
:100F40000895FC0120E030E08081882311F421E045
:100F500030E0C9010895FC0181E08083089508957F
:100F60000895EF92FF920F931F937B018C0120E075
:100F700030E040E05FE40E942D0B88238CF0C80134
:100F8000B70120E030E040E05FE40E9429090E94C0
:100F9000EB0B9B01AC01205030404040504806C054
:100FA000C801B7010E94EB0B9B01AC01B901CA015A
:100FB0001F910F91FF90EF900895A0E0B0E0E3EE55
:100FC000F7E00C94150FDC012B01FA019C91923093
:100FD00008F439C1EB018881823008F433C19430C0
:100FE00069F4843009F02FC111969C911197898181
:100FF000981709F428C1A1E4B1E025C1843009F4AF
:1010000021C18230A9F4923009F01DC19A01AD01CD
:1010100088E0EA010990AE01E90109929E01815040
:10102000C1F7E201898111969C918923818308C1CE
:10103000923009F407C112962D903C901397EB0162
:101040008A819B811496AD90BD90CD90DC901797CE
:10105000EC80FD800E811F819101281B390BB901A5
:1010600037FF04C066277727621B730B6032710558
:101070000CF061C0121613066CF537014801062EFC
:1010800004C096948794779467940A94D2F721E0E9
:1010900030E040E050E004C0220F331F441F551FD2
:1010A0006A95D2F721503040404050402E213F21D8
:1010B00040235123211531054105510521F021E03F
:1010C00030E040E050E079018A01E628F72808295D
:1010D00019293CC0232BD1F1260E371E35014601BC
:1010E000062E04C096948794779467940A94D2F756
:1010F00021E030E040E050E004C0220F331F441FE5
:10110000551F6A95D2F721503040404050402A2167
:101110003B214C215D21211531054105510521F06F
:1011200021E030E040E050E059016A01A628B728EC
:10113000C828D9280BC0821593052CF01C01AA24BD
:10114000BB24650103C0EE24FF24870111969C9106
:10115000D20111968C91981709F445C0992339F062
:10116000A80197012A193B094C095D0906C0A6018F
:1011700095012E193F09400B510B57FD08C01182F4
:101180003382228224833583468357831DC081E0C6
:1011900081833382228288279927DC01821B930B6B
:1011A000A40BB50B84839583A683B7830DC0220F50
:1011B000331F441F551F2483358346835783828101
:1011C000938101979383828324813581468157815E
:1011D000DA01C9010197A109B1098F5F9F4FAF4F94
:1011E000BF4328F30BC0918333822282EA0CFB1C9D
:1011F0000C1D1D1DE482F5820683178383E0808326
:10120000248135814681578157FF1AC0C901AA2719
:1012100097FDA095BA2F81709070A070B070569510
:10122000479537952795822B932BA42BB52B848339
:101230009583A683B783828193810196938382836A
:10124000DF0101C0D201CD01CDB7DEB7E2E10C94E0
:10125000310FA0E2B0E0EFE2F9E00C94210F6983D6
:101260007A838B839C832D833E834F835887E9E069
:10127000EE2EF12CEC0EFD1ECE010196B7010E9460
:10128000DC0D8E010F5E1F4FCE010596B8010E9446
:10129000DC0D8A8991E089278A8BC701B801AE01EC
:1012A000475E5F4F0E94DD070E94070DA096E6E0B3
:1012B0000C943D0FA0E2B0E0E0E6F9E00C94210FC1
:1012C00069837A838B839C832D833E834F835887E6
:1012D000F9E0EF2EF12CEC0EFD1ECE010196B701C8
:1012E0000E94DC0D8E010F5E1F4FCE010596B801E6
:1012F0000E94DC0DC701B801AE01475E5F4F0E943E
:10130000DD070E94070DA096E6E00C943D0FA0E2D9
:10131000B0E0EDE8F9E00C94150F69837A838B83D4
:101320009C832D833E834F835887CE010196BE0157
:10133000675F7F4F0E94DC0DCE010596BE016F5E98
:101340007F4F0E94DC0D9985923088F08989823028
:10135000C8F0943019F4823051F404C0843029F478
:10136000923081F481E491E0C6C0923049F420E0EB
:101370009A858A89981321E02A87CE010996BBC0F5
:10138000823049F420E09A858A89981321E02A8BDB
:10139000CE014196B0C02D843E844F8458886D881C
:1013A0007E888F88988CEE24FF248701AA24BB2492
:1013B000650140E050E060E070E0E0E0F0E0C10195
:1013C00081709070892BE9F0E60CF71C081D191D3F
:1013D0009A01AB012A0D3B1D4C1D5D1D80E090E084
:1013E000A0E0B0E0E614F7040805190520F481E058
:1013F00090E0A0E0B0E0BA01A901480F591F6A1FB0
:101400007B1FAA0CBB1CCC1CDD1C97FE08C081E016
:1014100090E0A0E0B0E0A82AB92ACA2ADB2A3196D7
:10142000E032F10549F0660C771C881C991C569433
:10143000479437942794C3CFFA85EA892B893C894E
:101440008B859C85280F391F2E5F3F4F17C0CA011F
:1014500081709070892B61F016950795F794E79449
:1014600080E090E0A0E0B0E8E82AF92A0A2B1B2BE4
:1014700076956795579547952F5F3F4F77FDE7CF57
:101480000CC0440F551F661F771F17FD4160EE0CFF
:10149000FF1C001F111F21503040403090E05907C1
:1014A00090E0690790E4790760F32B8F3C8FDB01B4
:1014B000CA018F779070A070B07080349105A1053B
:1014C000B10561F447FD0AC0E114F10401051105FD
:1014D00029F0405C5F4F6F4F7F4F40781A8EFE17A8
:1014E00011F081E08A8F4D8F5E8F6F8F78A383E03C
:1014F000898FCE0149960E94070DA096E2E10C94D7
:10150000310FA8E1B0E0E7E8FAE00C941D0F698321
:101510007A838B839C832D833E834F835887B9E0E6
:10152000EB2EF12CEC0EFD1ECE010196B7010E94B0
:10153000DC0D8E010F5E1F4FCE010596B8010E9493
:10154000DC0D2985223008F47EC03989323010F450
:10155000B8017CC08A859A8989278A87243011F04E
:10156000223031F4231709F06EC061E471E06EC0DF
:10157000343039F41D861E861F86188A1C861B8609
:1015800004C0323021F484E08987B7015FC02B8525
:101590003C858B899C89281B390B3C872B87ED84E4
:1015A000FE840F851889AD88BE88CF88D88CEA1450
:1015B000FB040C051D0540F4EE0CFF1C001F111F61
:1015C000215030403C872B8720E030E040E050E065
:1015D00080E090E0A0E0B0E460E070E0EA14FB049A
:1015E0000C051D0540F0282B392B4A2B5B2BEA18E4
:1015F000FB080C091D09B695A79597958795EE0CE4
:10160000FF1C001F111F6F5F7F4F6F31710531F796
:10161000DA01C9018F779070A070B07080349105A5
:10162000A105B10561F427FD0AC0E114F10401052B
:10163000110529F0205C3F4F4F4F5F4F20782D87D9
:101640003E874F87588BBE01675F7F4FCB010E945B
:10165000070D6896EAE00C94390FA8E1B0E0E3E3E7
:10166000FBE00C94210F69837A838B839C832D8309
:101670003E834F83588789E0E82EF12CEC0EFD1E47
:10168000CE010196B7010E94DC0D8E010F5E1F4F47
:10169000CE010596B8010E94DC0D8985823040F0AC
:1016A0008989823028F0C701B8010E94540E01C018
:1016B0008FEF6896E6E00C943D0FA8E1B0E0E3E61A
:1016C000FBE00C94210F69837A838B839C832D83A9
:1016D0003E834F83588789E0E82EF12CEC0EFD1EE7
:1016E000CE010196B7010E94DC0D8E010F5E1F4FE7
:1016F000CE010596B8010E94DC0D8985823040F04C
:101700008989823028F0C701B8010E94540E01C0B7
:1017100081E06896E6E00C943D0FA8E0B0E0E3E9D4
:10172000FBE00C941E0F9B01AC0183E08983DA017E
:10173000C9018827B7FD83959927AA27BB27B82E0B
:10174000211531054105510519F482E089833AC01C
:101750008823A9F0203080E0380780E0480780E83F
:10176000580729F460E070E080E09FEC30C0EE2480
:10177000FF248701E21AF30A040B150B02C079015A
:101780008A018EE1C82ED12CDC82CB82ED82FE82D2
:101790000F831887C801B7010E94B80C019718166B
:1017A000190684F4082E04C0EE0CFF1C001F111F44
:1017B0000A94D2F7ED82FE820F831887C81AD90ADD
:1017C000DC82CB82BA82CE0101960E94070D289658
:1017D000E9E00C943A0FACE0B0E0E1EFFBE00C94F0
:1017E000250F69837A838B839C83CE010196BE018A
:1017F0006B5F7F4F0E94DC0D8D81823061F1823002
:1018000050F1843021F48E81882351F12EC02F8134
:10181000388537FD20C06E812F3131051CF06623DD
:10182000F9F023C08EE190E0821B930B29853A8565
:101830004B855C8504C056954795379527958A95C5
:10184000D2F76623B1F050954095309521953F4FE2
:101850004F4F5F4F0EC020E030E040E050E009C045
:101860002FEF3FEF4FEF5FE704C020E030E040E0B4
:1018700050E8B901CA012C96E2E00C94410FA8E0AF
:10188000B0E0E5E4FCE00C941D0F7B018C016115D8
:1018900071058105910519F482E0898360C083E0B8
:1018A00089838EE1C82ED12CDC82CB82ED82FE8230
:1018B0000F831887C801B7010E94B80CFC0131974B
:1018C000F7FF3BC0222733272E1B3F0B5701680130
:1018D000022E04C0D694C794B794A7940A94D2F762
:1018E00040E050E060E070E081E090E0A0E0B0E037
:1018F00004C0880F991FAA1FBB1F2A95D2F7019712
:10190000A109B1098E219F21A023B1230097A10530
:10191000B10521F041E050E060E070E04A295B2928
:101920006C297D294D835E836F8378878EE190E0FB
:101930008E1B9F0B9C838B8312C0309781F00E2EE1
:1019400004C0EE0CFF1C001F111F0A94D2F7ED8299
:10195000FE820F831887CE1ADF0ADC82CB821A82BE
:10196000CE0101960E94070D2896EAE00C94390FEB
:10197000EF92FF920F931F937B018C0180E0E8169A
:1019800080E0F80681E0080780E0180788F48FEF10
:10199000E816F1040105110531F028F088E090E027
:1019A000A0E0B0E017C080E090E0A0E0B0E012C09E
:1019B00080E0E81680E0F80680E0080781E018077C
:1019C00028F088E190E0A0E0B0E004C080E190E081
:1019D000A0E0B0E020E230E040E050E0281B390B0E
:1019E0004A0B5B0B04C016950795F794E7948A950C
:1019F000D2F7F701E75BFE4F8081281B31094109CF
:101A00005109C9011F910F91FF90EF900895DF9246
:101A1000EF92FF920F931F93FC01E480F580068103
:101A20001781D1808081823048F480E090E0A0E18D
:101A3000B0E0E82AF92A0A2B1B2BA5C0843009F450
:101A40009FC0823021F4EE24FF24870105C0E114F9
:101A5000F1040105110519F4E0E0F0E096C062819F
:101A600073819FEF623879070CF05BC022E83FEF8B
:101A7000261B370B2A3131052CF020E030E040E006
:101A800050E02AC0B801A701022E04C076956795E0
:101A9000579547950A94D2F781E090E0A0E0B0E036
:101AA00004C0880F991FAA1FBB1F2A95D2F7019760
:101AB000A109B1098E219F21A023B1230097A1057F
:101AC000B10521F081E090E0A0E0B0E09A01AB0127
:101AD000282B392B4A2B5B2BDA01C9018F779070A9
:101AE000A070B07080349105A105B10539F427FFCD
:101AF00009C0205C3F4F4F4F5F4F04C0215C3F4FF8
:101B00004F4F5F4FE0E0F0E02030A0E03A07A0E068
:101B10004A07A0E45A0710F0E1E0F0E079018A01F9
:101B200027C06038710564F5FB01E158FF4FD8010B
:101B3000C7018F779070A070B07080349105A105B7
:101B4000B10539F4E7FE0DC080E490E0A0E0B0E01C
:101B500004C08FE390E0A0E0B0E0E80EF91E0A1F99
:101B60001B1F17FF05C016950795F794E79431964C
:101B700087E016950795F794E7948A95D1F705C005
:101B8000EE24FF248701EFEFF0E06E2F67956627C4
:101B90006795902F9F77D794DD24D7948E2F8695C5
:101BA000492F462B582F5D29B701CA011F910F916C
:101BB000FF90EF90DF900895FC01DB01408151819F
:101BC0002281622F6F7770E0221F2227221F9381CC
:101BD000892F880F822B282F30E0991F9927991F72
:101BE00011969C93119721153105A9F541155105C1
:101BF0006105710511F482E037C082E89FEF13960A
:101C00009C938E9312979A01AB0167E0220F331FCA
:101C1000441F551F6A95D1F783E08C930DC0220FA6
:101C2000331F441F551F12968D919C911397019756
:101C300013969C938E931297203080E0380780E0B3
:101C4000480780E4580758F314962D933D934D931D
:101C50005C93179708952F3F310579F4411551058D
:101C60006105710519F484E08C93089564FF03C045
:101C700081E08C9312C01C9210C02F5730401396F5
:101C80003C932E93129783E08C9387E0440F551F6B
:101C9000661F771F8A95D1F7706414964D935D93F4
:101CA0006D937C93179708951F93DC01FB019C9122
:101CB000923008F447C08081823008F443C09430E9
:101CC00051F411961C91843099F58181682F70E050
:101CD000611B71093FC0843021F0923031F48230B1
:101CE000B9F18181882389F12DC011961C9111973A
:101CF0008230F1F081811817D9F412962D913C9120
:101D00001397828193818217930794F028173907DC
:101D1000BCF014968D919D910D90BC91A02D2481C5
:101D2000358146815781281739074A075B0718F420
:101D3000112341F00AC082179307A407B50740F4A6
:101D4000112319F061E070E005C06FEF7FEF02C072
:101D500060E070E0CB011F910895629FD001739FF6
:101D6000F001829FE00DF11D649FE00DF11D929F37
:101D7000F00D839FF00D749FF00D659FF00D992776
:101D8000729FB00DE11DF91F639FB00DE11DF91F9A
:101D9000BD01CF011124089597FB092E07260AD013
:101DA00077FD04D02ED006D000201AF470956195EE
:101DB0007F4F0895F6F7909581959F4F0895A1E282
:101DC0001A2EAA1BBB1BFD010DC0AA1FBB1FEE1FB5
:101DD000FF1FA217B307E407F50720F0A21BB30B00
:101DE000E40BF50B661F771F881F991F1A9469F77C
:101DF00060957095809590959B01AC01BD01CF01D8
:101E00000895AA1BBB1B51E107C0AA1FBB1FA61741
:101E1000B70710F0A61BB70B881F991F5A95A9F793
:101E200080959095BC01CD0108952F923F924F92DD
:101E30005F926F927F928F929F92AF92BF92CF925A
:101E4000DF92EF92FF920F931F93CF93DF93CDB763
:101E5000DEB7CA1BDB0B0FB6F894DEBF0FBECDBFDB
:101E600009942A88398848885F846E847D848C84AC
:101E70009B84AA84B984C884DF80EE80FD800C81B5
:101E80001B81AA81B981CE0FD11D0FB6F894DEBF98
:101E90000FBECDBFED010895EE0FFF1F0590F49129
:081EA000E02D0994F894FFCF36
:101EA8002E0000000000B007690081002000507576
:101EB800736870616B2051756164726F746F722002
:101EC800524320526164696F2053657475702E2ED9
:101ED8002E2E2E2E2E2E00000000005407690081A1
:101EE80000000000000000000000010202030303DC
:101EF8000304040404040404040505050505050594
:101F08000505050505050505050606060606060672
:101F18000606060606060606060606060606060659
:101F28000606060606060606060707070707070742
:101F38000707070707070707070707070707070729
:101F48000707070707070707070707070707070719
:101F58000707070707070707070707070707070709
:101F680007070707070707070708080808080808F2
:101F780008080808080808080808080808080808D9
:101F880008080808080808080808080808080808C9
:101F980008080808080808080808080808080808B9
:101FA80008080808080808080808080808080808A9
:101FB8000808080808080808080808080808080899
:101FC8000808080808080808080808080808080889
:101FD8000808080808080808080808080808080879
:0A1FE80008080808080808080800A7
:00000001FF
