:100000000C9441000C9469000C9469000C946900F4
:100010000C9469000C9469000C9469000C946900BC
:100020000C9469000C9469000C9469000C946900AC
:100030000C9469000C9469000C9469000C9469009C
:100040000C9469000C9469000C9469000C9469008C
:100050000C9469000C9469000C9469000C9469007C
:100060000C943A130C9469000C9469000C94690088
:100070000C9469000C9469000C946900D40F1D1A4B
:100080000D1B11241FBECFEFD0E1DEBFCDBF12E0AC
:10009000A0E0B1E0E2E8F7E302C005900D92A234DF
:1000A000B107D9F713E0A2E4B2E001C01D92A63671
:1000B000B107E1F710E0C2E8D0E004C02297FE01EA
:1000C0000E94BB1BCC37D107C9F70E94B4170C9410
:1000D000BF1B0C940000EF92FF920F931F937B01C4
:1000E0008C0120E030E040E05FE40E9417048823A8
:1000F0008CF0C801B70120E030E040E05FE40E94EE
:10010000E3010E94D5049B01AC01205030404040E7
:10011000504806C0C801B7010E94D5049B01AC013C
:10012000B901CA011F910F91FF90EF900895A0E0CF
:10013000B0E0EDE9F0E00C94821BDC012B01FA0148
:100140009C91923008F439C1EB018881823008F427
:1001500033C1943069F4843009F02FC111969C9119
:1001600011978981981709F428C1A6E2B1E025C149
:10017000843009F421C18230A9F4923009F01DC104
:100180009A01AD0188E0EA010990AE01E901099206
:100190009E018150C1F7E201898111969C918923CA
:1001A000818308C1923009F407C112962D903C90CA
:1001B0001397EB018A819B811496AD90BD90CD90F1
:1001C000DC901797EC80FD800E811F819101281B28
:1001D000390BB90137FF04C066277727621B730B01
:1001E000603271050CF061C0121613066CF5370110
:1001F0004801062E04C096948794779467940A94D5
:10020000D2F721E030E040E050E004C0220F331F7D
:10021000441F551F6A95D2F721503040404050404E
:100220002E213F2140235123211531054105510540
:1002300021F021E030E040E050E079018A01E62839
:10024000F728082919293CC0232BD1F1260E371E87
:1002500035014601062E04C09694879477946794DE
:100260000A94D2F721E030E040E050E004C0220FD1
:10027000331F441F551F6A95D2F72150304040402C
:1002800050402A213B214C215D212115310541059A
:10029000510521F021E030E040E050E059016A01D1
:1002A000A628B728C828D9280BC0821593052CF09A
:1002B0001C01AA24BB24650103C0EE24FF2487018E
:1002C00011969C91D20111968C91981709F445C012
:1002D000992339F0A80197012A193B094C095D09B6
:1002E00006C0A60195012E193F09400B510B57FD81
:1002F00008C0118233822282248335834683578348
:100300001DC081E081833382228288279927DC0106
:10031000821B930BA40BB50B84839583A683B783B1
:100320000DC0220F331F441F551F2483358346837E
:1003300057838281938101979383828324813581BE
:1003400046815781DA01C9010197A109B1098F5F7F
:100350009F4FAF4FBF4328F30BC09183338222825C
:10036000EA0CFB1C0C1D1D1DE482F582068317831D
:1003700083E08083248135814681578157FF1AC0ED
:10038000C901AA2797FDA095BA2F81709070A0701F
:10039000B0705695479537952795822B932BA42BB4
:1003A000B52B84839583A683B7838281938101963D
:1003B00093838283DF0101C0D201CD01CDB7DEB7C7
:1003C000E2E10C949E1BA0E2B0E0E9EEF1E00C94B7
:1003D0008E1B69837A838B839C832D833E834F831B
:1003E0005887E9E0EE2EF12CEC0EFD1ECE010196B1
:1003F000B7010E94C6068E010F5E1F4FCE01059603
:10040000B8010E94C6068A8991E089278A8BC701B4
:10041000B801AE01475E5F4F0E9497000E94F10550
:10042000A096E6E00C94AA1BA0E2B0E0EAE1F2E0BC
:100430000C948E1B69837A838B839C832D833E83EC
:100440004F835887F9E0EF2EF12CEC0EFD1ECE0104
:100450000196B7010E94C6068E010F5E1F4FCE01A6
:100460000596B8010E94C606C701B801AE01475EF5
:100470005F4F0E9497000E94F105A096E6E00C9461
:10048000AA1BA0E2B0E0E7E4F2E00C94821B6983CF
:100490007A838B839C832D833E834F835887CE0141
:1004A0000196BE01675F7F4F0E94C606CE0105968A
:1004B000BE016F5E7F4F0E94C6069985923088F01C
:1004C00089898230C8F0943019F4823051F404C024
:1004D000843029F4923081F486E291E0C6C09230F3
:1004E00049F420E09A858A89981321E02A87CE0171
:1004F0000996BBC0823049F420E09A858A89981316
:1005000021E02A8BCE014196B0C02D843E844F84D9
:1005100058886D887E888F88988CEE24FF24870108
:10052000AA24BB24650140E050E060E070E0E0E018
:10053000F0E0C10181709070892BE9F0E60CF71CA6
:10054000081D191D9A01AB012A0D3B1D4C1D5D1D97
:1005500080E090E0A0E0B0E0E614F704080519059B
:1005600020F481E090E0A0E0B0E0BA01A901480FDA
:10057000591F6A1F7B1FAA0CBB1CCC1CDD1C97FEDD
:1005800008C081E090E0A0E0B0E0A82AB92ACA2A19
:10059000DB2A3196E032F10549F0660C771C881CA5
:1005A000991C5694479437942794C3CFFA85EA89C7
:1005B0002B893C898B859C85280F391F2E5F3F4FE7
:1005C00017C0CA0181709070892B61F0169507954C
:1005D000F794E79480E090E0A0E0B0E8E82AF92AF8
:1005E0000A2B1B2B76956795579547952F5F3F4FA5
:1005F00077FDE7CF0CC0440F551F661F771F17FD0F
:100600004160EE0CFF1C001F111F21503040403094
:1006100090E0590790E0690790E4790760F32B8F29
:100620003C8FDB01CA018F779070A070B07080346E
:100630009105A105B10561F447FD0AC0E114F1047B
:100640000105110529F0405C5F4F6F4F7F4F4078E7
:100650001A8EFE1711F081E08A8F4D8F5E8F6F8F9B
:1006600078A383E0898FCE0149960E94F105A09678
:10067000E2E10C949E1BA8E1B0E0E1E4F3E00C940D
:100680008A1B69837A838B839C832D833E834F836C
:100690005887B9E0EB2EF12CEC0EFD1ECE01019631
:1006A000B7010E94C6068E010F5E1F4FCE01059650
:1006B000B8010E94C6062985223008F47EC0398917
:1006C000323010F4B8017CC08A859A8989278A87DC
:1006D000243011F0223031F4231709F06EC066E2A5
:1006E00071E06EC0343039F41D861E861F86188A6C
:1006F0001C861B8604C0323021F484E08987B70150
:100700005FC02B853C858B899C89281B390B3C87D6
:100710002B87ED84FE840F851889AD88BE88CF882D
:10072000D88CEA14FB040C051D0540F4EE0CFF1CEC
:10073000001F111F215030403C872B8720E030E004
:1007400040E050E080E090E0A0E0B0E460E070E0E5
:10075000EA14FB040C051D0540F0282B392B4A2B0D
:100760005B2BEA18FB080C091D09B695A795979510
:100770008795EE0CFF1C001F111F6F5F7F4F6F31BD
:10078000710531F7DA01C9018F779070A070B070F0
:1007900080349105A105B10561F427FD0AC0E1147B
:1007A000F1040105110529F0205C3F4F4F4F5F4FC9
:1007B00020782D873E874F87588BBE01675F7F4F1C
:1007C000CB010E94F1056896EAE00C94A61BA8E113
:1007D000B0E0EDEEF3E00C948E1B69837A838B839B
:1007E0009C832D833E834F83588789E0E82EF12C2C
:1007F000EC0EFD1ECE010196B7010E94C6068E01C9
:100800000F5E1F4FCE010596B8010E94C60689856E
:10081000823040F08989823028F0C701B8010E94F7
:100820003E0701C08FEF6896E6E00C94AA1BA8E192
:10083000B0E0EDE1F4E00C948E1B69837A838B8346
:100840009C832D833E834F83588789E0E82EF12CCB
:10085000EC0EFD1ECE010196B7010E94C6068E0168
:100860000F5E1F4FCE010596B8010E94C60689850E
:10087000823040F08989823028F0C701B8010E9497
:100880003E0701C08FEF6896E6E00C94AA1BA8E132
:10089000B0E0EDE4F4E00C948E1B69837A838B83E3
:1008A0009C832D833E834F83588789E0E82EF12C6B
:1008B000EC0EFD1ECE010196B7010E94C6068E0108
:1008C0000F5E1F4FCE010596B8010E94C6068985AE
:1008D000823040F08989823028F0C701B8010E9437
:1008E0003E0701C081E06896E6E00C94AA1BA8E0F0
:1008F000B0E0EDE7F4E00C948B1B9B01AC0183E0CE
:100900008983DA01C9018827B7FD83959927AA272A
:10091000BB27B82E211531054105510519F482E098
:1009200089833AC08823A9F0203080E0380780E02E
:10093000480780E8580729F460E070E080E09FEC09
:1009400030C0EE24FF248701E21AF30A040B150BD2
:1009500002C079018A018EE1C82ED12CDC82CB82C3
:10096000ED82FE820F831887C801B7010E94A2059D
:1009700001971816190684F4082E04C0EE0CFF1C0B
:10098000001F111F0A94D2F7ED82FE820F83188791
:10099000C81AD90ADC82CB82BA82CE0101960E94A3
:1009A000F1052896E9E00C94A71BACE0B0E0EBED74
:1009B000F4E00C94921B69837A838B839C83CE0131
:1009C0000196BE016B5F7F4F0E94C6068D8182300B
:1009D00061F1823050F1843021F48E81882351F10D
:1009E0002EC02F81388537FD20C06E812F31310513
:1009F0001CF06623F9F023C08EE190E0821B930B7C
:100A000029853A854B855C8504C056954795379571
:100A100027958A95D2F76623B1F050954095309589
:100A200021953F4F4F4F5F4F0EC020E030E040E038
:100A300050E009C02FEF3FEF4FEF5FE704C020E029
:100A400030E040E050E8B901CA012C96E2E00C9495
:100A5000AE1BA8E0B0E0EFE2F5E00C948A1B7B014E
:100A60008C01611571058105910519F482E0898376
:100A700060C083E089838EE1C82ED12CDC82CB82DA
:100A8000ED82FE820F831887C801B7010E94A2057C
:100A9000FC013197F7FF3BC0222733272E1B3F0B6A
:100AA00057016801022E04C0D694C794B794A79446
:100AB0000A94D2F740E050E060E070E081E090E01E
:100AC000A0E0B0E004C0880F991FAA1FBB1F2A95A1
:100AD000D2F70197A109B1098E219F21A023B1234B
:100AE0000097A105B10521F041E050E060E070E021
:100AF0004A295B296C297D294D835E836F83788722
:100B00008EE190E08E1B9F0B9C838B8312C03097ED
:100B100081F00E2E04C0EE0CFF1C001F111F0A9462
:100B2000D2F7ED82FE820F831887CE1ADF0ADC82AD
:100B3000CB821A82CE0101960E94F1052896EAE046
:100B40000C94A61BEF92FF920F931F937B018C01D5
:100B500080E0E81680E0F80681E0080780E01807EA
:100B600088F48FEFE816F1040105110531F028F043
:100B700088E090E0A0E0B0E017C080E090E0A0E066
:100B8000B0E012C080E0E81680E0F80680E00807D8
:100B900081E0180728F088E190E0A0E0B0E004C010
:100BA00080E190E0A0E0B0E020E230E040E050E002
:100BB000281B390B4A0B5B0B04C016950795F7945D
:100BC000E7948A95D2F7F701E25DFE4F8081281BFA
:100BD000310941095109C9011F910F91FF90EF900F
:100BE0000895DF92EF92FF920F931F93FC01E48030
:100BF000F58006811781D1808081823048F480E0C1
:100C000090E0A0E1B0E0E82AF92A0A2B1B2BA5C04E
:100C1000843009F49FC0823021F4EE24FF24870140
:100C200005C0E114F1040105110519F4E0E0F0E05C
:100C300096C0628173819FEF623879070CF05BC0C8
:100C400022E83FEF261B370B2A3131052CF020E03C
:100C500030E040E050E02AC0B801A701022E04C0F5
:100C600076956795579547950A94D2F781E090E07D
:100C7000A0E0B0E004C0880F991FAA1FBB1F2A95EF
:100C8000D2F70197A109B1098E219F21A023B12399
:100C90000097A105B10521F081E090E0A0E0B0E06F
:100CA0009A01AB01282B392B4A2B5B2BDA01C901A6
:100CB0008F779070A070B07080349105A105B10558
:100CC00039F427FF09C0205C3F4F4F4F5F4F04C0EE
:100CD000215C3F4F4F4F5F4FE0E0F0E02030A0E05D
:100CE0003A07A0E04A07A0E45A0710F0E1E0F0E07C
:100CF00079018A0127C06038710564F5FB01E1586C
:100D0000FF4FD801C7018F779070A070B07080340A
:100D10009105A105B10539F4E7FE0DC080E490E02E
:100D2000A0E0B0E004C08FE390E0A0E0B0E0E80E07
:100D3000F91E0A1F1B1F17FF05C016950795F7948C
:100D4000E794319687E016950795F794E7948A958E
:100D5000D1F705C0EE24FF248701EFEFF0E06E2FFE
:100D6000679566276795902F9F77D794DD24D79452
:100D70008E2F8695492F462B582F5D29B701CA0122
:100D80001F910F91FF90EF90DF900895FC01DB0120
:100D9000408151812281622F6F7770E0221F2227CC
:100DA000221F9381892F880F822B282F30E0991FD3
:100DB0009927991F11969C93119721153105A9F533
:100DC000411551056105710511F482E037C082E8D3
:100DD0009FEF13969C938E9312979A01AB0167E055
:100DE000220F331F441F551F6A95D1F783E08C9360
:100DF0000DC0220F331F441F551F12968D919C91D9
:100E00001397019713969C938E931297203080E04E
:100E1000380780E0480780E4580758F314962D936C
:100E20003D934D935C93179708952F3F310579F4C7
:100E3000411551056105710519F484E08C930895FD
:100E400064FF03C081E08C9312C01C9210C02F5726
:100E5000304013963C932E93129783E08C9387E057
:100E6000440F551F661F771F8A95D1F7706414963B
:100E70004D935D936D937C93179708951F93DC01B9
:100E8000FB019C91923008F447C08081823008F4C5
:100E900043C0943051F411961C91843099F58181AE
:100EA000682F70E0611B71093FC0843021F09230DF
:100EB00031F48230B9F18181882389F12DC01196F6
:100EC0001C9111978230F1F081811817D9F4129694
:100ED0002D913C911397828193818217930794F00F
:100EE00028173907BCF014968D919D910D90BC91F7
:100EF000A02D2481358146815781281739074A075B
:100F00005B0718F4112341F00AC082179307A40766
:100F1000B50740F4112319F061E070E005C06FEFF0
:100F20007FEF02C060E070E0CB011F910895DF9376
:100F3000CF9300D000D0CDB7DEB79A8389837C836E
:100F40006B8314C0E981FA810190F081E02D20814A
:100F50003181EB81FC8140818B819C8101969C8356
:100F60008B8389819A81642FF9010995EB81FC813A
:100F70008081882339F70F900F900F900F90CF91B9
:100F8000DF910895DF93CF93CDB7DEB727970FB6E4
:100F9000F894DEBF0FBECDBF9A8389837C836B83B9
:100FA0005E834D8314C0E981FA810190F081E02DC8
:100FB00020813181EB81FC8140818B819C81019674
:100FC0009C838B8389819A81642FF90109951F8203
:100FD0008D819E81009711F081E08F838D819E81AC
:100FE00001979E838D838F818823E9F627960FB61C
:100FF000F894DEBF0FBECDBFCF91DF910895DF9390
:10100000CF9300D00F92CDB7DEB79A8389836B83DD
:10101000E981FA810190F081E02D0190F081E02DCD
:1010200089819A816B8109950F900F900F90CF91D4
:10103000DF910895DF93CF9300D00F92CDB7DEB745
:101040009A8389836B8389819A816B810E94FF07D0
:101050000F900F900F90CF91DF910895DF93CF9372
:1010600000D000D0CDB7DEB79A8389837C836B83B1
:10107000E981FA8180819181FC0132960190F081B1
:10108000E02D89819A812B813C81B90109950F90CE
:101090000F900F900F90CF91DF910895DF93CF9332
:1010A00000D0CDB7DEB79A83898389819A816DE0BC
:1010B0000E941A0889819A816AE00E941A080F909A
:1010C0000F90CF91DF910895DF93CF9300D00F92CF
:1010D000CDB7DEB79A8389836B8389819A816B81CF
:1010E0000E941A0889819A810E944E080F900F90E1
:1010F0000F90CF91DF910895DF93CF9300D000D070
:10110000CDB7DEB79A8389837C836B8389819A818B
:101110002B813C81B9010E942E0889819A810E940D
:101120004E080F900F900F900F90CF91DF91089580
:10113000DF93CF9300D00F92CDB7DEB79A83898328
:101140006B8389819A816B810E94FF0789819A81D3
:101150000E944E080F900F900F90CF91DF9108954D
:10116000EF92FF920F931F93DF93CF93CDB7DEB72C
:10117000AC970FB6F894DEBF0FBECDBF9EA38DA374
:101180004FA358A769A77AA72BA719821A821B8297
:101190001C828FA198A5A9A5BAA50097A105B105A4
:1011A000F1F58DA19EA160E30E941A088EC0E9802E
:1011B000FA800B811C818BA5282F30E040E050E0A5
:1011C0008FA198A5A9A5BAA5BC01CD010E944C1B71
:1011D000DC01CB01282FCE010596FC01EE0DFF1D91
:1011E000208389819A81AB81BC810196A11DB11DAB
:1011F00089839A83AB83BC838BA5282F30E040E0A2
:1012000050E08FA198A5A9A5BAA5BC01CD010E9467
:101210004C1BDA01C9018FA398A7A9A7BAA78FA170
:1012200098A5A9A5BAA50097A105B10509F0BFCF5A
:1012300043C089819A81AB81BC810197A109B10921
:101240009E012B5F3F4FF901E80FF91F80818A3023
:1012500090F489819A81AB81BC810197A109B10980
:101260009E012B5F3F4FF901E80FF91F8081982FF6
:10127000905D9CA711C089819A81AB81BC81019747
:10128000A109B1099E012B5F3F4FF901E80FF91F3A
:101290008081982F995C9CA78DA19EA16CA50E942E
:1012A0001A0889819A81AB81BC810197A109B10992
:1012B00089839A83AB83BC8389819A81AB81BC810A
:1012C0000097A105B10509F0B4CFAC960FB6F8941C
:1012D000DEBF0FBECDBFCF91DF911F910F91FF9069
:1012E000EF900895DF93CF9300D000D000D0CDB71A
:1012F000DEB79A8389834B835C836D837E83898188
:101300009A812B813C814D815E81BA01A9012AE03D
:101310000E94B00826960FB6F894DEBF0FBECDBF70
:10132000CF91DF910895DF93CF9300D000D000D00C
:10133000CDB7DEB79A8389834B835C836D837E83CD
:1013400089819A812B813C814D815E81BA01A901FD
:101350000E94720989819A810E944E0826960FB6D2
:10136000F894DEBF0FBECDBFCF91DF910895DF931C
:10137000CF9300D000D0CDB7DEB79A8389837C832A
:101380006B838B819C819C0140E050E089819A8134
:10139000BA01A9010E9472090F900F900F900F904F
:1013A000CF91DF910895DF93CF9300D000D0CDB7D8
:1013B000DEB79A8389837C836B8389819A812B81B1
:1013C0003C81B9010E94B70989819A810E944E0827
:1013D0000F900F900F900F90CF91DF910895DF93B2
:1013E000CF9300D000D000D0CDB7DEB79A838983E9
:1013F0004B835C836D837E838B819C81AD81BE81B9
:10140000BB23A4F489819A816DE20E941A088B8122
:101410009C81AD81BE81B095A095909581959F4F9F
:10142000AF4FBF4F8B839C83AD83BE832B813C81A9
:101430004D815E8189819A81BA01A9012AE00E94C9
:10144000B00826960FB6F894DEBF0FBECDBFCF9181
:10145000DF910895DF93CF9300D000D000D0CDB7B7
:10146000DEB79A8389834B835C836D837E83898116
:101470009A812B813C814D815E81BA01A9010E9434
:10148000EF0989819A810E944E0826960FB6F8943A
:10149000DEBF0FBECDBFCF91DF910895DF93CF9315
:1014A00000D000D0CDB7DEB79A8389837C836B836D
:1014B0008B819C819C01442737FD4095542F898165
:1014C0009A81BA01A9010E94EF090F900F900F9025
:1014D0000F90CF91DF910895DF93CF9300D000D08C
:1014E000CDB7DEB79A8389837C836B8389819A81A8
:1014F0002B813C81B9010E944E0A89819A810E9408
:101500004E080F900F900F900F90CF91DF9108959C
:10151000DF93CF93CDB7DEB728970FB6F894DEBF31
:101520000FBECDBF9A8389834B835C836D837E839B
:1015300038872F838F819885009739F42B81898193
:101540009A81622F0E941A081CC08F8198858A3068
:10155000910559F489819A812B813C814D815E816D
:10156000BA01A9010E94EF090CC02B813C814D8179
:101570005E81EF8189819A81BA01A9012E2F0E9493
:10158000B00828960FB6F894DEBF0FBECDBFCF913E
:10159000DF910895DF93CF93CDB7DEB728970FB6CD
:1015A000F894DEBF0FBECDBF9A8389834B835C83E3
:1015B0006D837E8338872F8389819A812B813C813B
:1015C0004D815E81EF81F885BA01A9019F010E94DA
:1015D000880A89819A810E944E0828960FB6F8944D
:1015E000DEBF0FBECDBFCF91DF910895DF93CF93C4
:1015F000CDB7DEB767970FB6F894DEBF0FBECDBF8D
:10160000998B888B4A8B5B8B6C8B7D8B2E8B6A893D
:101610007B898C899D8920E030E040E050E00E9489
:101620004704882374F4888999896DE20E941A0816
:101630008A899B89AC89BD89B0588A8B9B8BAC8B7E
:10164000BD8B80E090E0A0E0BFE38C879D87AE87F4
:10165000BF871B8213C06C857D858E859F8520E0AA
:1016600030E040E251E40E943B03DC01CB018C8777
:101670009D87AE87BF878B818F5F8B839B818E8990
:10168000981748F36A897B898C899D892C853D85CB
:101690004E855F850E941402DC01CB018A8B9B8BF7
:1016A000AC8BBD8B6A897B898C899D890E946B007C
:1016B000DC01CB0188879987AA87BB8768857985F4
:1016C0008A859B850E9429059B01AC016A897B89DB
:1016D0008C899D890E94E301DC01CB018C839D8371
:1016E000AE83BF8388899989288539854A855B853A
:1016F000BA01A9010E9472098E89882309F441C0A8
:101700008889998920E031E0B9010E942E0839C00A
:101710006C817D818E819F8120E030E040E251E448
:101720000E944102DC01CB018C839D83AE83BF8389
:101730006C817D818E819F810E94D504DC01CB016B
:101740009A8389838889998929813A81B9010E947C
:101750004E0A89819A81AA2797FDA095BA2FBC01CC
:10176000CD010E9477049B01AC016C817D818E814B
:101770009F810E94E301DC01CB018C839D83AE83BA
:10178000BF838E898F8B8F89882311F081E08F8BA7
:101790008F899E8991509E8B882309F0B9CF6796D7
:1017A0000FB6F894DEBF0FBECDBFCF91DF91089585
:1017B000DF93CF9300D000D000D0CDB7DEB79A83AF
:1017C00089834B835C836D837E8389819A812B819E
:1017D0003C814D815E81BA01A90122E00E94F60A96
:1017E00026960FB6F894DEBF0FBECDBFCF91DF9126
:1017F0000895DF93CF9300D000D000D0CDB7DEB7EF
:101800009A8389834B835C836D837E8389819A81EC
:101810002B813C814D815E81BA01A9010E94D80BC8
:1018200089819A810E944E0826960FB6F894DEBFF1
:101830000FBECDBFCF91DF910895DF93CF9300D03E
:10184000CDB7DEB79A838983E981FA8182E392E09A
:10185000918380830F900F90CF91DF9108958F92A5
:10186000AF92CF92DF92EF92FF920F931F93DF938D
:10187000CF93CDB7DEB760970FB6F894DEBF0FBE3B
:10188000CDBF9A8389837C836B835E834D83388746
:101890002F831A870987FC86EB86DE86CD86AF8686
:1018A000888A89819A810E941D0CE981FA818CE3E2
:1018B00092E091838083E981FA818B819C8193837B
:1018C0008283E981FA818D819E8195838483E98178
:1018D000FA818F81988597838683E981FA8189854A
:1018E0009A8591878087E981FA818B859C8593878A
:1018F0008287E981FA818D859E8595878487E98134
:10190000FA818F858687E981FA8188898787E981CD
:10191000FA818D8D808BE981FA818E8D818BE981B1
:10192000FA818F8D828B60960FB6F894DEBF0FBE62
:10193000CDBFCF91DF911F910F91FF90EF90DF907E
:10194000CF90AF908F9008958F92AF92CF92DF9209
:10195000EF92FF920F931F93DF93CF93CDB7DEB734
:1019600060970FB6F894DEBF0FBECDBF9A83898310
:101970007C836B835E834D8338872F831A87098727
:10198000FC86EB86DE86CD86AF86888A89819A8141
:101990000E941D0CE981FA818CE392E0918380839F
:1019A000E981FA818B819C8193838283E981FA8129
:1019B0008D819E8195838483E981FA818F819885C9
:1019C00097838683E981FA8189859A8591878087C3
:1019D000E981FA818B859C8593878287E981FA81E9
:1019E0008D859E8595878487E981FA818F85868795
:1019F000E981FA8188898787E981FA818D8D808BD9
:101A0000E981FA818E8D818BE981FA818F8D828BBC
:101A100060960FB6F894DEBF0FBECDBFCF91DF91B9
:101A20001F910F91FF90EF90DF90CF90AF908F902C
:101A30000895DF93CF93CDB7DEB72F970FB6F89405
:101A4000DEBF0FBECDBF9F838E83488759876A87CD
:101A50007B8788859985AA85BB85813D22E1920790
:101A600023E1A20720E0B20718F081E08B83BBC01E
:101A7000288539854A855B8580EA95E2A6E2B0E053
:101A8000BC01CD010E944C1BDA01C9010197A109DB
:101A9000B109B695A795979587950196A11DB11D9A
:101AA000880F991FAA1FBB1F880F991FAA1FBB1F52
:101AB000880F991FAA1FBB1F880F991FAA1FBB1F42
:101AC0009C01AD0180E09DE2A1E3B1E0BC01CD014C
:101AD0000E944C1BDA01C9012FEF30E040E050E0DA
:101AE000BC01CD010E941A1BDC01CB012885398580
:101AF0004A855B85BC01CD010E944C1BDA01C901FE
:101B00009C018FEF90E0821B930B9F878E878E85C1
:101B10009F8599233CF48E859F85909581959F4F55
:101B20009F878E879E859A83288539854A855B8520
:101B300080E49BE4ACE4B0E0BC01CD010E944C1B0E
:101B4000DA01C9010197A109B109B695A795979541
:101B500087950196A11DB11D880F991FAA1FBB1F54
:101B6000880F991FAA1FBB1F880F991FAA1FBB1F91
:101B70009C01AD0180E09DE2A1E3B1E0BC01CD019B
:101B80000E944C1BDA01C9012FEF30E040E050E029
:101B9000BC01CD010E941A1BDC01CB0128853985CF
:101BA0004A855B85BC01CD010E944C1BDA01C9014D
:101BB0009C018FEF90E0821B930B9D878C878C8517
:101BC0009D8599233CF48C859D85909581959F4FAB
:101BD0009D878C879C8599831B829A81898189172F
:101BE00010F481E08B838B81882349F1EE81FF81A2
:101BF000A085B185EE81FF818289282F30E081E0C8
:101C000090E002C0880F991F2A95E2F78C932885EF
:101C100039854A855B8580E49BE4ACE4B0E0BC0197
:101C2000CD010E944C1BDA01C9010197A109B1093C
:101C3000B695A795979587959D838C831DC0EE815A
:101C4000FF810084F185E02D1082288539854A8541
:101C50005B8580EA95E2A6E2B0E0BC01CD010E947E
:101C60004C1BDA01C9010197A109B109B695A795E5
:101C7000979587959D838C83EE81FF810480F58104
:101C8000E02D8C819D81892F99278083EE81FF81B2
:101C90000680F781E02D8C818083EE81FF81A28513
:101CA000B385EE81FF810284F385E02D8081482F8A
:101CB000EE81FF818685282F30E081E090E002C030
:101CC000880F991F2A95E2F7842B8C93EE81FF8170
:101CD000A285B385EE81FF810284F385E02D8081AA
:101CE000482FEE81FF818785282F30E081E090E04A
:101CF00002C0880F991F2A95E2F7842B8C93EE81FE
:101D0000FF81A285B385EE81FF810284F385E02DFA
:101D10008081482FEE81FF818089282F30E081E08B
:101D200090E0022E02C0880F991F0A94E2F7842BDC
:101D30008C932F960FB6F894DEBF0FBECDBFCF9118
:101D4000DF910895DF93CF9300D0CDB7DEB79A83AC
:101D50008983E981FA8182819381FC01E058FF4FF8
:101D6000808191819C0120583F4FE981FA818281D5
:101D70009381FC01EE57FF4F80819181A901481B9F
:101D8000590BCA0120E830E0B9010E94391B0F90BD
:101D90000F90CF91DF9108950F931F93DF93CF930F
:101DA00000D000D00F92CDB7DEB79B838A83EA8143
:101DB000FB8182819381FC01E058FF4F20813181BA
:101DC000EA81FB8182819381FC01EE57FF4F808184
:101DD00091812817390729F42FEF3FEF3D832C839A
:101DE0002FC0EA81FB8122813381EA81FB818281DC
:101DF0009381FC01EE57FF4F80819181F901E80F3B
:101E0000F91F80818983EA81FB8102811381EA8144
:101E1000FB8182819381FC01EE57FF4F808191818C
:101E2000019620E830E0B9010E94391BF801EE5715
:101E3000FF4F918380838981282F30E03D832C835D
:101E40008C819D810F900F900F900F900F90CF91EC
:101E5000DF911F910F910895DF93CF9300D0CDB7FD
:101E6000DEB79A838983E981FA8122813381E9810E
:101E7000FA8182819381FC01EE57FF4F808191812D
:101E8000F901E058FF4F918380830F900F90CF911D
:101E9000DF910895DF93CF9300D00F92CDB7DEB7D7
:101EA0009A8389836B83E981FA810084F185E02D2F
:101EB0008081282F30E0E981FA818189882F90E0A4
:101EC000A90102C0559547958A95E2F7CA0181702C
:101ED0009070982F81E08927882329F7E981FA817A
:101EE0000484F585E02D8B8180830F900F900F90F7
:101EF000CF91DF9108958F92AF92CF92DF92EF92C0
:101F0000FF920F931F93DF93CF9300D000D0CDB7F4
:101F1000DEB79A8389837C836B8389819A81813040
:101F2000910599F58B819C812FEF8F3F920769F581
:101F300000D00F92EDB7FEB7319626EC32E042E4C6
:101F400052E087E0808385E0818381E08283C9015C
:101F5000BA0145EC50E024EC30E000EC10E00F2E2C
:101F6000F1ECEF2EFF24F02D0F2EF6ECCF2EDD241A
:101F7000F02DAA246894A2F80F2EF3E08F2EF02DF6
:101F80000E94A40C0F900F900F900F900F900F9045
:101F90000F90CF91DF911F910F91FF90EF90DF9005
:101FA000CF90AF908F900895DF93CF93CDB7DEB7EA
:101FB00081E090E06FEF7FEF0E947B0FCF91DF9188
:101FC0000895DF93CF9300D000D0CDB7DEB79A83CA
:101FD0008983E981FA8180811C821B82882321F414
:101FE00081E090E09C838B838B819C810F900F908C
:101FF0000F900F90CF91DF910895DF93CF9300D092
:10200000CDB7DEB79A838983E981FA8181E0808345
:102010000F900F90CF91DF910895DF93CF9300D071
:10202000CDB7DEB79A8389830F900F90CF91DF9160
:102030000895DF93CF93CDB7DEB7CF91DF910895A9
:10204000DF93CF930F92CDB7DEB78983ACE7B0E0D3
:10205000ECE7F0E08081282F2F738981882F90E0B2
:102060000024969587950794969587950794982FC1
:10207000802D822B8C930F90CF91DF910895DF9369
:10208000CF930F92CDB7DEB78983ACE7B0E0ECE732
:10209000F0E08081982F907E89818F71892B8C93BD
:1020A0000F90CF91DF910895DF93CF9300D000D0B0
:1020B0000F92CDB7DEB7EFE5F0E080818D83F89425
:1020C0008091620390916303A0916403B0916503D2
:1020D00089839A83AB83BC83EFE5F0E08D818083B5
:1020E00089819A81AB81BC81BC01CD010F900F9099
:1020F0000F900F900F90CF91DF910895DF93CF93C2
:10210000CDB7DEB7A3970FB6F894DEBF0FBECDBF35
:10211000109262031092630310926403109265039D
:10212000AAE7B0E0EAE7F0E0808184608C93AAE758
:10213000B0E0EAE7F0E0808182608C93AAE7B0E04B
:10214000EAE7F0E0808181608C9380E00E942010BB
:10215000AAE7B0E0EAE7F0E0808180688C938EE146
:102160000E943F1080E090E0A8ECB2E4898F9A8F43
:10217000AB8FBC8F698D7A8D8B8D9C8D20E030E488
:102180004CE955E40E944102DC01CB018D8B9E8B12
:10219000AF8BB88F6D897E898F89988D20E030E074
:1021A00040E85FE30E94470488232CF481E090E03C
:1021B0009C8B8B8B3FC06D897E898F89988D20E0A9
:1021C0003FEF4FE757E40E94E70318164CF5698D7F
:1021D0007A8D8B8D9C8D20E030E040E251E40E94AE
:1021E0004102DC01CB01BC01CD010E946B00DC018E
:1021F000CB019C8B8B8B0FC084EF91E09A8B898BEA
:1022000089899A890197F1F79A8B898B8B899C89A7
:1022100001979C8B8B8B8B899C89009769F714C0E5
:102220006D897E898F89988D0E946B00DC01CB01BE
:102230009C8B8B8B8B899C89988B8F878F859889BA
:102240000197F1F7988B8F8710923F0310923E030E
:1022500010926103109260031BA237C0AAE7B0E09E
:10226000EAE7F0E0808180648C93EAE7F0E0808127
:10227000882F90E0807490700097B9F7E8E7F0E05D
:10228000808189A3E9E7F0E080818AA38AA1882F71
:1022900090E0382F222789A1882F90E0822B932B62
:1022A000909361038093600320913E0330913F033C
:1022B0008091600390916103820F931F90933F037D
:1022C00080933E038BA18F5F8BA38BA1803130F273
:1022D00080913E0390913F039695879596958795BB
:1022E00090933F0380933E0380913E0390913F0380
:1022F000CC01A0E0B0E0BC01CD010E9429059B010A
:10230000AC0160E070E889E899E40E943B03DC01DD
:10231000CB018D8F9E8FAF8FB8A36D8D7E8D8F8DEE
:1023200098A120E030E040E05FE30E941402DC016D
:10233000CB018D8F9E8FAF8FB8A36D8D7E8D8F8DCE
:1023400098A10E946B00DC01CB0190932D03809338
:102350002C03AAE7B0E0EAE7F0E080818F778C9366
:1023600080E00E94201080E00E943F10AAE7B0E0C9
:10237000EAE7F0E0808180628C93AAE7B0E0EAE7C8
:10238000F0E0808188608C93AAE7B0E0EAE7F0E0B3
:10239000808180688C931BA217C08BA1882F90E04E
:1023A000880F991FFC01E452FD4F118210828BA10E
:1023B000882F90E0880F991FFC01E451FD4F118296
:1023C00010828BA18F5F8BA38BA1883030F380E0CC
:1023D00090E0A8ECB2E48B879C87AD87BE876B85C5
:1023E0007C858D859E8520E030E44CE955E40E9493
:1023F0004102DC01CB018F839887A987BA876F815F
:10240000788589859A8520E030E040E85FE30E9486
:10241000470488232CF481E090E09E838D833FC0A5
:102420006F81788589859A8520E03FEF4FE757E4F3
:102430000E94E70318164CF56B857C858D859E857B
:1024400020E030E040E251E40E944102DC01CB0197
:10245000BC01CD010E946B00DC01CB019E838D830A
:102460000FC084EF91E09C838B838B819C810197CB
:10247000F1F79C838B838D819E8101979E838D8351
:102480008D819E81009769F714C06F817885898559
:102490009A850E946B00DC01CB019E838D838D8128
:1024A0009E819A83898389819A810197F1F79A8322
:1024B00089837894AAE7B0E0EAE7F0E0808180645D
:1024C0008C9386E48093DB0205C08091DB0281500F
:1024D0008093DB028091DB028130B9F781E0809349
:1024E000DB028091DB020E943F10A3960FB6F894A6
:1024F000DEBF0FBECDBFCF91DF910895DF93CF93A5
:10250000CDB7DEB78091D902CF91DF910895DF93E7
:10251000CF9300D0CDB7DEB78091D9028823E1F305
:102520001092D902EFE5F0E080818983F8941A8255
:1025300037C08A81482F50E08A81882F90E0880F29
:10254000991FFC01E451FD4F808191819C013695DA
:10255000279536952795CA01880F991FFC01E25DE2
:10256000FC4F318320838A81482F50E08A81882F55
:1025700090E0880F991FFC01E05CFC4F8081918105
:102580009C013695279536952795CA01880F991F86
:10259000FC01E05BFC4F318320838A818F5F8A835B
:1025A0008A81883030F2EFE5F0E0898180830F90F6
:1025B0000F90CF91DF910895DF93CF93CDB7DEB722
:1025C00029970FB6F894DEBF0FBECDBF89878985E6
:1025D000882F90E0880F991FFC01E25DFC4F8081FD
:1025E0009181CC01A0E0B0E08D839E83AF83B8875A
:1025F0008D819E81AF81B88527EE32E040E050E0CA
:10260000BC01CD010E941A1BDC01CB0189839A8396
:10261000AB83BC8389819A81AB81BC81072E7AE030
:10262000B595A795979587957A95D1F7702D89835C
:102630009A83AB83BC8389819A8129960FB6F894DB
:10264000DEBF0FBECDBFCF91DF910895DF93CF9353
:102650000F92CDB7DEB789838981882F90E0880FEC
:10266000991FFC01E25DFC4F808191810F90CF9119
:10267000DF9108951F920F920FB60F9211242F939E
:102680003F934F935F936F937F938F939F93AF93FA
:10269000BF93EF93FF93DF93CF9300D00F92CDB70B
:1026A000DEB7E8E7F0E080818B83E9E7F0E0808146
:1026B0008A838091DB02882319F54091EA025091C8
:1026C000EB028A81882F90E0382F22278B81882F78
:1026D00090E0822B932B840F951F9093EB028093B5
:1026E000EA028A81882F90E0382F22278B81882F59
:1026F00090E0822B932B90934F0380934E0342C024
:102700008091DB02882F90E0BC0161507040809185
:10271000DB02882F90E00197880F991FFC01E4529B
:10272000FD4F408151818A81882F90E0382F2227E8
:102730008B81882F90E0822B932B9A01280F391FD1
:10274000CB01880F991FFC01E452FD4F3183208398
:102750008091DB02882F90E0AC01415050408A818B
:10276000882F90E0382F22278B81882F90E0822BB2
:10277000932B9C01CA01880F991FFC01E05CFC4F60
:10278000318320838091DB02882309F049C0809146
:10279000DA028F5F8093DA028091DA02803109F0E9
:1027A0003FC0198222C08981482F50E08981882F3B
:1027B00090E0880F991FFC01E452FD4F2081318188
:1027C000CA01880F991FFC01E451FD4F318320831A
:1027D0008981882F90E0880F991FFC01E452FD4FFA
:1027E0001182108289818F5F898389818830D8F234
:1027F0001092DA0281E08093D90280916203909175
:102800006303A0916403B09165030196A11DB11DFE
:102810008093620390936303A0936403B093650372
:102820008091DB028F5F8093DB028091DB02883036
:1028300011F41092DB028091DB020E943F100F9096
:102840000F900F90CF91DF91FF91EF91BF91AF91DA
:102850009F918F917F916F915F914F913F912F91B8
:102860000F900FBE0F901F901895DF93CF93CDB7A9
:10287000DEB72B970FB6F894DEBF0FBECDBF1A861A
:1028800019861B8632C00E94871280E00E94DC12EB
:102890009E838D8381E00E94DC129C838B8382E087
:1028A0000E94DC129A8389832D813E814B815C8159
:1028B000E981FA8184E193E0B9019F010E94FC184B
:1028C0002091340330913503409136035091370302
:1028D000E0913803F091390380E293E0B9019F0160
:1028E0000E94AB1A8B858F5F8B878B85882359F26B
:1028F000ABE2B0E0EBE2F0E0908180E189278C93DD
:102900000E9454109B01AC0186EC92E0BA01A9012F
:102910000E9472091B8617C086EC92E06CE20E944E
:102920001A088B85882F90E0880F991FFC01E25DC3
:10293000FC4F2081318186EC92E0B9010E94B709F9
:102940008B858F5F8B878B85863030F386EC92E0AA
:102950000E944E082B960FB6F894DEBF0FBECDBF77
:10296000CF91DF910895DF93CF93CDB7DEB7C054F9
:10297000D0400FB6F894DEBF0FBECDBF84E68FAF58
:10298000A5E2B0E0E5E2F0E0808182608C9380E037
:1029900090E0A8ECB2E48BA39CA3ADA3BEA36BA173
:1029A0007CA18DA19EA125E535E545ED50E40E9471
:1029B0004102DC01CB018F8F98A3A9A3BAA36F8D2D
:1029C00078A189A19AA120E030E040E85FE30E946D
:1029D000470488231CF481E08E8F91C06F8D78A10D
:1029E00089A19AA120E030E04FE753E40E94E70379
:1029F00018160CF07BC06BA17CA18DA19EA120E0DC
:102A000030E04AE754E40E943B03DC01CB018A8FAB
:102A10009B8FAC8FBD8F6A8D7B8D8C8D9D8D20E0C3
:102A200030E44CE955E40E944102DC01CB018E8B7D
:102A30009F8BA88FB98F6E897F89888D998D20E0B3
:102A400030E040E85FE30E94470488232CF481E0F3
:102A500090E09D8B8C8B3FC06E897F89888D998D8E
:102A600020E03FEF4FE757E40E94E70318164CF5CC
:102A70006A8D7B8D8C8D9D8D20E030E040E251E4AD
:102A80000E944102DC01CB01BC01CD010E946B0020
:102A9000DC01CB019D8B8C8B0FC084EF91E09B8B75
:102AA0008A8B8A899B890197F1F79B8B8A8B8C890A
:102AB0009D8901979D8B8C8B8C899D89009769F7E7
:102AC00024C06E897F89888D998D0E946B00DC01FE
:102AD000CB019D8B8C8B8C899D89998B888B888968
:102AE00099890197F1F7998B888B0FC06F8D78A129
:102AF00089A19AA10E946B00DC01CB018E8F8E8D83
:102B00008F878F858A95F1F78F87A5E2B0E0E5E2A0
:102B1000F0E080818D7F8C9380E090E0A8ECB2E4BF
:102B20008B879C87AD87BE876B857C858D859E85D1
:102B300020E030E44CE955E40E944102DC01CB0185
:102B40008F839887A987BA876F81788589859A85C9
:102B500020E030E040E85FE30E94470488232CF443
:102B600081E090E09E838D833FC06F817885898569
:102B70009A8520E03FEF4FE757E40E94E7031816DD
:102B80004CF56B857C858D859E8520E030E040E2AC
:102B900051E40E944102DC01CB01BC01CD010E9445
:102BA0006B00DC01CB019E838D830FC084EF91E02D
:102BB0009C838B838B819C810197F1F79C838B8312
:102BC0008D819E8101979E838D838D819E8100974B
:102BD00069F714C06F81788589859A850E946B009A
:102BE000DC01CB019E838D838D819E819A838983B5
:102BF00089819A810197F1F79A8389831FA618AA80
:102C000019AA1AAA1BA61CA61DA61EA61FA218A6B4
:102C100019A61AA61BAE1CAE1DAE1EAE1FAA18AE7C
:102C200019AE1AAE1BAA1CAA1DAA1EAAFE01E05CC0
:102C3000FF4F108280C00E94871280E00E94DC1249
:102C40009C01442737FD4095542F8FA598A9A9A929
:102C5000BAA9820F931FA41FB51F8FA798ABA9AB6A
:102C6000BAAB81E00E94DC129C01442737FD4095FD
:102C7000542F8BA59CA5ADA5BEA5820F931FA41FA5
:102C8000B51F8BA79CA7ADA7BEA782E00E94DC1250
:102C90009C01442737FD4095542F8FA198A5A9A5E5
:102CA000BAA5820F931FA41FB51F8FA398A7A9A72A
:102CB000BAA780913403909135039C0140E050E025
:102CC0008BAD9CADADADBEAD820F931FA41FB51FE4
:102CD0008BAF9CAFADAFBEAF809136039091370301
:102CE0009C0140E050E08FA998ADA9ADBAAD820F2C
:102CF000931FA41FB51F8FAB98AFA9AFBAAF809138
:102D00003803909139039C0140E050E08BA99CA9C5
:102D1000ADA9BEA9820F931FA41FB51F8BAB9CAB9F
:102D2000ADABBEABFE01E05CFF4F80818F5FFE016B
:102D3000E05CFF4F8083FE01E05CFF4F80818436C2
:102D400008F479CF8FA598A9A9A9BAA924E630E0FB
:102D500040E050E0BC01CD010E944C1BDA01C901EA
:102D60008FA798ABA9ABBAAB8BA59CA5ADA5BEA50B
:102D700024E630E040E050E0BC01CD010E944C1B55
:102D8000DA01C9018BA79CA7ADA7BEA78FA198A503
:102D9000A9A5BAA524E630E040E050E0BC01CD0191
:102DA0000E944C1BDA01C9018FA398A7A9A7BAA753
:102DB0008BAD9CADADADBEAD24E630E040E050E063
:102DC000BC01CD010E944C1BDA01C9018BAF9CAF45
:102DD000ADAFBEAF8FA998ADA9ADBAAD24E630E0D6
:102DE00040E050E0BC01CD010E944C1BDA01C9015A
:102DF0008FAB98AFA9AFBAAF8BA99CA9ADA9BEA95B
:102E000024E630E040E050E0BC01CD010E944C1BC4
:102E1000DA01C9018BAB9CABADABBEAB2FA538A91A
:102E20004BA55CA5EFA5F8A984E193E0B9019F014A
:102E30000E94CF182BAD3CAD4FA958ADEBA9FCA912
:102E400080E293E0B9019F010E947E1AC05CDF4FCF
:102E50000FB6F894DEBF0FBECDBFCF91DF910895BE
:102E6000DF93CF9300D000D0CDB7DEB786EC92E0F1
:102E700040E052EC61E070E00E94190D86EC92E0B7
:102E80000E944E0886EC92E00E944E0886EC92E08A
:102E90000E944E0886EC92E022E031E0B9010E94E7
:102EA0007C08AAE2B0E0EAE2F0E0808180618C93E5
:102EB000A4E2B0E0E4E2F0E0808182608C930E94C2
:102EC0007E100E94B31486EC92E00E944E0883E7C5
:102ED000809300038EE68093010380E780930203D2
:102EE00087EB809303038DE0809304038FE380934B
:102EF00005038FEF9FEF9C838B8380E09CEF9A8389
:102F000089838B819C8195958795959587959C83E1
:102F10008B8389819A8195958795959587959A83D5
:102F2000898386EC92E02CE131E0B9010E942E0801
:102F300086EC92E02B813C81B9010E946C0A86EC00
:102F400092E021E231E0B9010E942E0886EC92E085
:102F500029813A81B9010E946C0A0F900F900F905D
:102F60000F90CF91DF910895DF93CF93CDB7DEB768
:102F70000E9430170E943514FDCFDF93CF93CDB759
:102F8000DEB764970FB6F894DEBF0FBECDBF84E105
:102F9000FE013196DF01982F1D929A95E9F78BEA91
:102FA00089838DEC8A8383E08B8380E18C830E940C
:102FB0005410DC01CB018D839E83AF83B887809151
:102FC0002E0390912F039A878987809130039091E7
:102FD00031039C878B8780913203909133039E87C6
:102FE0008D878091340390913503988B8F878091E2
:102FF0003603909137039A8B898B80913803909197
:1030000039039C8B8B8B86EC92E09E012F5F3F4FA8
:10301000B90144E150E00E94C20764960FB6F894EB
:10302000DEBF0FBECDBFCF91DF910895DF93CF9369
:10303000CDB7DEB768970FB6F894DEBF0FBECDBF31
:1030400088E1FE013196DF01982F1D929A95E9F7EC
:103050008BEA89838DEC8A8382E08B8384E18C8385
:103060000E945410DC01CB018D839E83AF83B8870F
:1030700080912E0390912F039A8789878091300346
:10308000909131039C878B87809132039091330319
:103090009E878D878091340390913503988B8F871D
:1030A00080913603909137039A8B898B80913803F6
:1030B000909139039C8B8B8B80913A0390913B03C9
:1030C0009E8B8D8B80913C0390913D03988F8F8BCD
:1030D00086EC92E09E012F5F3F4FB90148E150E03E
:1030E0000E94C20768960FB6F894DEBF0FBECDBF30
:1030F000CF91DF910895DF93CF9300D0CDB7DEB7A6
:103100009A838983E981FA8182ED94E097838683AB
:10311000E981FA8182ED94E091878087E981FA81E3
:1031200082ED94E093878287E981FA81118210828F
:10313000E981FA8113821282E981FA81158214826F
:103140000F900F90CF91DF910895DF93CF9300D030
:10315000CDB7DEB79A838983E981FA8182ED94E065
:1031600097838683E981FA8182ED94E09187808755
:10317000E981FA8182ED94E093878287E981FA817F
:1031800011821082E981FA8113821282E981FA8127
:10319000158214820F900F90CF91DF910895DF93E5
:1031A000CF93CDB7DEB728970FB6F894DEBF0FBE2A
:1031B000CDBF9A8389837C836B835E834D833887FD
:1031C0002F838B819C81E981FA81978386838D810E
:1031D0009E81E981FA81918780878F819885E98135
:1031E000FA819387828728960FB6F894DEBF0FBEC8
:1031F000CDBFCF91DF910895EF92FF920F931F9370
:10320000DF93CF93CDB7DEB764970FB6F894DEBFE8
:103210000FBECDBF9E878D87788B6F875A8B498B6A
:103220003C8B2B8B8F8598899C0140E050E0ED858D
:10323000FE8586819781AA2797FDA095BA2F7901EF
:103240008A01E81AF90A0A0B1B0BD801C701898702
:103250009A87AB87BC8789899A899C0140E050E0B6
:10326000ED85FE8580859185AA2797FDA095BA2FCB
:1032700079018A01E81AF90A0A0B1B0BD801C70168
:103280008D839E83AF83B8878B899C899C0140E0A6
:1032900050E0ED85FE8582859385AA2797FDA09550
:1032A000BA2F79018A01E81AF90A0A0B1B0BD80117
:1032B000C70189839A83AB83BC8389859A85AB8553
:1032C000BC8520E035E040E050E0BC01CD010E942B
:1032D0001A1BDC01CB01072E7AE0B595A7959795CF
:1032E00087957A95D1F7702D89879A87AB87BC87A8
:1032F0008D819E81AF81B88520E035E040E050E0CF
:10330000BC01CD010E941A1BDC01CB01072E7AE023
:10331000B595A795979587957A95D1F7702D8D835B
:103320009E83AF83B88789819A81AB81BC8120E07D
:1033300035E040E050E0BC01CD010E941A1BDC01E9
:10334000CB01072E7AE0B595A795979587957A9545
:10335000D1F7702D89839A83AB83BC8389859A8545
:10336000ED85FE85918380838D819E81ED85FE852F
:103370009383828389819A81ED85FE8595838483F9
:1033800064960FB6F894DEBF0FBECDBFCF91DF912C
:103390001F910F91FF90EF900895DF93CF9300D08E
:1033A000CDB7DEB79A838983E981FA8180819181E3
:1033B0000F900F90CF91DF910895DF93CF9300D0BE
:1033C000CDB7DEB79A838983E981FA8182819381BF
:1033D0000F900F90CF91DF910895DF93CF9300D09E
:1033E000CDB7DEB79A838983E981FA81848195819B
:1033F0000F900F90CF91DF910895DF93CF9300D07E
:1034000000D0CDB7DEB79A8389837C836B838981B3
:103410009A818130910551F48B819C812FEF8F3FF0
:10342000920721F484E193E00E94A5180F900F9079
:103430000F900F90CF91DF910895DF93CF93CDB789
:10344000DEB781E090E06FEF7FEF0E94FD19CF9132
:10345000DF910895DF93CF9300D0CDB7DEB79A8385
:103460008983E981FA8182ED94E097838683E981FB
:10347000FA8182ED94E091878087E981FA8182ED7B
:1034800094E093878287E981FA8111821082E98131
:10349000FA8113821282E981FA81158214820F90D7
:1034A0000F90CF91DF910895DF93CF9300D0CDB7E8
:1034B000DEB79A838983E981FA8182ED94E097836C
:1034C0008683E981FA8182ED94E091878087E981A2
:1034D000FA8182ED94E093878287E981FA811182F3
:1034E0001082E981FA8113821282E981FA811582C0
:1034F00014820F900F90CF91DF910895DF93CF93B7
:10350000CDB7DEB728970FB6F894DEBF0FBECDBF9C
:103510009A8389837C836B835E834D8338872F8373
:103520008B819C81E981FA81978386838D819E813D
:10353000E981FA81918780878F819885E981FA8175
:103540009387828728960FB6F894DEBF0FBECDBF53
:10355000CF91DF910895DF93CF93CDB7DEB7289752
:103560000FB6F894DEBF0FBECDBF9A8389837C83EC
:103570006B835E834D8338872F83E981FA8186814F
:1035800097819C018B819C81821B930BE981FA813D
:1035900091838083E981FA81808591859C018D8169
:1035A0009E81821B930BE981FA8193838283E98157
:1035B000FA81828593859C018F819885821B930B6C
:1035C000E981FA819583848328960FB6F894DEBF4B
:1035D0000FBECDBFCF91DF910895DF93CF9300D081
:1035E00000D0CDB7DEB79A8389837C836B838981D2
:1035F0009A818130910551F48B819C812FEF8F3F0F
:10360000920721F480E293E00E94541A0F900F90E9
:103610000F900F90CF91DF910895DF93CF93CDB7A7
:10362000DEB781E090E06FEF7FEF0E94ED1ACF915F
:10363000DF910895629FD001739FF001829FE00D9A
:10364000F11D649FE00DF11D929FF00D839FF00D21
:10365000749FF00D659FF00D9927729FB00DE11DCD
:10366000F91F639FB00DE11DF91FBD01CF011124AA
:10367000089597FB092E07260AD077FD04D02ED097
:1036800006D000201AF4709561957F4F0895F6F7E3
:10369000909581959F4F0895A1E21A2EAA1BBB1BFE
:1036A000FD010DC0AA1FBB1FEE1FFF1FA217B3070E
:1036B000E407F50720F0A21BB30BE40BF50B661F24
:1036C000771F881F991F1A9469F7609570958095E8
:1036D00090959B01AC01BD01CF010895AA1BBB1BB6
:1036E00051E107C0AA1FBB1FA617B70710F0A61B02
:1036F000B70B881F991F5A95A9F780959095BC0123
:10370000CD0108952F923F924F925F926F927F92D8
:103710008F929F92AF92BF92CF92DF92EF92FF92E1
:103720000F931F93CF93DF93CDB7DEB7CA1BDB0B8D
:103730000FB6F894DEBF0FBECDBF09942A88398832
:1037400048885F846E847D848C849B84AA84B98439
:10375000C884DF80EE80FD800C811B81AA81B98145
:10376000CE0FD11D0FB6F894DEBF0FBECDBFED0159
:103770000895EE0FFF1F0590F491E02D0994F89441
:02378000FFCF79
:103782002E005075736870616B2051756164726FA1
:10379200746F722E2E2E2E2E2E2E2E0078203D206D
:1037A2000079203D20000000000000000000000120
:1037B20002020303030304040404040404040505CD
:1037C20005050505050505050505050505050606A5
:1037D2000606060606060606060606060606060687
:1037E2000606060606060606060606060606070775
:1037F2000707070707070707070707070707070757
:103802000707070707070707070707070707070746
:103812000707070707070707070707070707070736
:103822000707070707070707070707070707080824
:103832000808080808080808080808080808080806
:1038420008080808080808080808080808080808F6
:1038520008080808080808080808080808080808E6
:1038620008080808080808080808080808080808D6
:1038720008080808080808080808080808080808C6
:1038820008080808080808080808080808080808B6
:1038920008080808080808080808080808080808A6
:1038A20008080808080808080808080808080000A6
:1038B200000019109707C207000000004A0F97077F
:0238C200C2073B
:00000001FF
